{
  "contractName": "Healthchain",
  "abi": [
    {
      "anonymous": false,
      "inputs": [
        {
          "indexed": true,
          "internalType": "address",
          "name": "cliente",
          "type": "address"
        }
      ],
      "name": "ClienteAtualizado",
      "type": "event"
    },
    {
      "anonymous": false,
      "inputs": [
        {
          "indexed": true,
          "internalType": "address",
          "name": "cliente",
          "type": "address"
        },
        {
          "indexed": true,
          "internalType": "address",
          "name": "instituicao",
          "type": "address"
        }
      ],
      "name": "ClienteCadastrado",
      "type": "event"
    },
    {
      "anonymous": false,
      "inputs": [
        {
          "indexed": true,
          "internalType": "address",
          "name": "socorrista",
          "type": "address"
        },
        {
          "indexed": true,
          "internalType": "address",
          "name": "cliente",
          "type": "address"
        }
      ],
      "name": "ClienteConsultado",
      "type": "event"
    },
    {
      "anonymous": false,
      "inputs": [
        {
          "indexed": true,
          "internalType": "address",
          "name": "cliente",
          "type": "address"
        }
      ],
      "name": "ClienteExcluido",
      "type": "event"
    },
    {
      "anonymous": false,
      "inputs": [
        {
          "indexed": true,
          "internalType": "address",
          "name": "conta",
          "type": "address"
        },
        {
          "indexed": false,
          "internalType": "uint256",
          "name": "valor",
          "type": "uint256"
        }
      ],
      "name": "DepositoRealizado",
      "type": "event"
    },
    {
      "anonymous": false,
      "inputs": [
        {
          "indexed": true,
          "internalType": "address",
          "name": "instituicao",
          "type": "address"
        },
        {
          "indexed": false,
          "internalType": "string",
          "name": "nome",
          "type": "string"
        }
      ],
      "name": "InstituicaoCadastrada",
      "type": "event"
    },
    {
      "anonymous": false,
      "inputs": [
        {
          "indexed": true,
          "internalType": "address",
          "name": "socorrista",
          "type": "address"
        },
        {
          "indexed": true,
          "internalType": "address",
          "name": "instituicao",
          "type": "address"
        }
      ],
      "name": "SocorristaCadastrado",
      "type": "event"
    },
    {
      "anonymous": false,
      "inputs": [
        {
          "indexed": true,
          "internalType": "address",
          "name": "socorrista",
          "type": "address"
        }
      ],
      "name": "SocorristaExcluido",
      "type": "event"
    },
    {
      "inputs": [
        {
          "internalType": "address",
          "name": "",
          "type": "address"
        }
      ],
      "name": "clienteParaInstituicao",
      "outputs": [
        {
          "internalType": "address",
          "name": "",
          "type": "address"
        }
      ],
      "stateMutability": "view",
      "type": "function",
      "constant": true
    },
    {
      "inputs": [
        {
          "internalType": "address",
          "name": "",
          "type": "address"
        }
      ],
      "name": "socorristaParaInstituicao",
      "outputs": [
        {
          "internalType": "address",
          "name": "",
          "type": "address"
        }
      ],
      "stateMutability": "view",
      "type": "function",
      "constant": true
    },
    {
      "inputs": [
        {
          "internalType": "address",
          "name": "_instituicaoAddress",
          "type": "address"
        },
        {
          "internalType": "string",
          "name": "_nomeInstituicao",
          "type": "string"
        }
      ],
      "name": "cadastrarInstituicao",
      "outputs": [],
      "stateMutability": "nonpayable",
      "type": "function"
    },
    {
      "inputs": [
        {
          "internalType": "address",
          "name": "_instituicao",
          "type": "address"
        }
      ],
      "name": "getInstituicao",
      "outputs": [
        {
          "internalType": "address",
          "name": "",
          "type": "address"
        },
        {
          "internalType": "string",
          "name": "",
          "type": "string"
        }
      ],
      "stateMutability": "view",
      "type": "function",
      "constant": true
    },
    {
      "inputs": [
        {
          "internalType": "address",
          "name": "_cliente",
          "type": "address"
        },
        {
          "internalType": "string",
          "name": "_comorbidades",
          "type": "string"
        },
        {
          "internalType": "string",
          "name": "_alergias",
          "type": "string"
        },
        {
          "internalType": "string",
          "name": "_tipoSanguineo",
          "type": "string"
        },
        {
          "internalType": "string",
          "name": "_restricao",
          "type": "string"
        }
      ],
      "name": "cadastrarCliente",
      "outputs": [],
      "stateMutability": "payable",
      "type": "function",
      "payable": true
    },
    {
      "inputs": [
        {
          "internalType": "string",
          "name": "_comorbidades",
          "type": "string"
        },
        {
          "internalType": "string",
          "name": "_alergias",
          "type": "string"
        },
        {
          "internalType": "string",
          "name": "_tipoSanguineo",
          "type": "string"
        },
        {
          "internalType": "string",
          "name": "_restricao",
          "type": "string"
        }
      ],
      "name": "editarCliente",
      "outputs": [],
      "stateMutability": "nonpayable",
      "type": "function"
    },
    {
      "inputs": [
        {
          "internalType": "address",
          "name": "_cliente",
          "type": "address"
        }
      ],
      "name": "excluirCliente",
      "outputs": [],
      "stateMutability": "nonpayable",
      "type": "function"
    },
    {
      "inputs": [
        {
          "internalType": "address",
          "name": "_cliente",
          "type": "address"
        }
      ],
      "name": "getCliente",
      "outputs": [
        {
          "internalType": "string",
          "name": "",
          "type": "string"
        },
        {
          "internalType": "string",
          "name": "",
          "type": "string"
        },
        {
          "internalType": "string",
          "name": "",
          "type": "string"
        },
        {
          "internalType": "string",
          "name": "",
          "type": "string"
        }
      ],
      "stateMutability": "nonpayable",
      "type": "function"
    },
    {
      "inputs": [
        {
          "internalType": "address",
          "name": "_socorrista",
          "type": "address"
        },
        {
          "internalType": "string",
          "name": "_crm",
          "type": "string"
        }
      ],
      "name": "cadastrarSocorrista",
      "outputs": [],
      "stateMutability": "nonpayable",
      "type": "function"
    },
    {
      "inputs": [
        {
          "internalType": "address",
          "name": "_socorrista",
          "type": "address"
        }
      ],
      "name": "excluirSocorrista",
      "outputs": [],
      "stateMutability": "nonpayable",
      "type": "function"
    },
    {
      "inputs": [
        {
          "internalType": "address",
          "name": "_socorrista",
          "type": "address"
        }
      ],
      "name": "getSocorrista",
      "outputs": [
        {
          "internalType": "address",
          "name": "",
          "type": "address"
        },
        {
          "internalType": "string",
          "name": "",
          "type": "string"
        },
        {
          "internalType": "address",
          "name": "",
          "type": "address"
        }
      ],
      "stateMutability": "view",
      "type": "function",
      "constant": true
    }
  ],
  "bytecode": "0x608060405234801561001057600080fd5b5061188d806100206000396000f3fe6080604052600436106100bc5760003560e01c80636abf0bc711610074578063a1918b881161004e578063a1918b88146101ea578063a6d5c1251461020a578063bc4e750014610239576100bc565b80636abf0bc71461016d5780637c4342701461018d5780637c6dd62c146101bd576100bc565b80633e91f90c116100a55780633e91f90c1461011a57806341b326e61461012d57806354d0ff881461014d576100bc565b80630ea22782146100c1578063149e93f5146100e3575b600080fd5b3480156100cd57600080fd5b506100e16100dc36600461122d565b610259565b005b3480156100ef57600080fd5b506101036100fe366004611107565b610331565b604051610111929190611334565b60405180910390f35b6100e1610128366004611174565b610448565b34801561013957600080fd5b506100e1610148366004611107565b6105ef565b34801561015957600080fd5b506100e1610168366004611128565b610728565b34801561017957600080fd5b506100e1610188366004611107565b610836565b34801561019957600080fd5b506101ad6101a8366004611107565b61097c565b60405161011194939291906113a7565b3480156101c957600080fd5b506101dd6101d8366004611107565b610ceb565b6040516101119190611320565b3480156101f657600080fd5b506101dd610205366004611107565b610d06565b34801561021657600080fd5b5061022a610225366004611107565b610d21565b6040516101119392919061135e565b34801561024557600080fd5b506100e1610254366004611128565b610e54565b336000908152602081905260409020546001600160a01b03166102975760405162461bcd60e51b815260040161028e9061146d565b60405180910390fd5b33600090815260208181526040909120855190916102bc916001840191880190610f92565b5083516102d29060028301906020870190610f92565b5082516102e89060038301906020860190610f92565b5081516102fe9060048301906020850190610f92565b5060405133907f2c3800f2a56615b94254b7c99b43479f24a657bcb50caaf0bf886fac5e9d0b6a90600090a25050505050565b6001600160a01b0381811660009081526002602052604081205490916060911661036d5760405162461bcd60e51b815260040161028e906114db565b6001600160a01b0380841660009081526002602090815260408083208151808301909252805490941681526001840180549394919391928401916103b0906117d4565b80601f01602080910402602001604051908101604052809291908181526020018280546103dc906117d4565b80156104295780601f106103fe57610100808354040283529160200191610429565b820191906000526020600020905b81548152906001019060200180831161040c57829003601f168201915b5050505050815250509050806000015181602001519250925050915091565b336000908152600260205260409020546001600160a01b031661047d5760405162461bcd60e51b815260040161028e90611660565b6001600160a01b0385811660009081526020819052604090205416156104b55760405162461bcd60e51b815260040161028e9061156f565b6040805160a0810182526001600160a01b03878116808352602080840189815284860189905260608501889052608085018790526000928352828252949091208351815473ffffffffffffffffffffffffffffffffffffffff1916931692909217825592518051929391926105309260018501920190610f92565b506040820151805161054c916002840191602090910190610f92565b5060608201518051610568916003840191602090910190610f92565b5060808201518051610584916004840191602090910190610f92565b5050506001600160a01b038516600081815260036020526040808220805473ffffffffffffffffffffffffffffffffffffffff19163390811790915590519092917fc82a107b146e523ab812d62a4e1ca9d3a83cb2a034b209d6f1bfff67a47d015d91a35050505050565b6001600160a01b03818116600090815260208190526040902054166106265760405162461bcd60e51b815260040161028e9061146d565b6001600160a01b0381811660009081526003602052604090205416331461065f5760405162461bcd60e51b815260040161028e90611777565b6001600160a01b0381166000908152602081905260408120805473ffffffffffffffffffffffffffffffffffffffff19168155906106a06001830182611016565b6106ae600283016000611016565b6106bc600383016000611016565b6106ca600483016000611016565b50506001600160a01b038116600081815260036020526040808220805473ffffffffffffffffffffffffffffffffffffffff19169055517f1139652d21360d0c70a0672d49fe4ca61de436c58dffe3b088fa8a950ea2c2c89190a250565b6001600160a01b03821661074e5760405162461bcd60e51b815260040161028e906114a4565b6001600160a01b0382811660009081526002602052604090205416156107865760405162461bcd60e51b815260040161028e90611740565b6040805180820182526001600160a01b038481168083526020808401868152600092835260028252949091208351815473ffffffffffffffffffffffffffffffffffffffff1916931692909217825592518051929391926107ed9260018501920190610f92565b50905050816001600160a01b03167fd898890cd6102e3e255029ba1b69fe2c1df6a86bfa724cd138d1467125122b988260405161082a9190611394565b60405180910390a25050565b336000908152600260205260409020546001600160a01b031661086b5760405162461bcd60e51b815260040161028e90611512565b6001600160a01b03818116600090815260016020526040902054166108a25760405162461bcd60e51b815260040161028e906113ff565b6001600160a01b038181166000908152600460205260409020541633146108db5760405162461bcd60e51b815260040161028e90611603565b6001600160a01b03811660009081526001602081905260408220805473ffffffffffffffffffffffffffffffffffffffff19168155919061091e90830182611016565b50506001600160a01b038116600081815260046020526040808220805473ffffffffffffffffffffffffffffffffffffffff19169055517ff213481f3b337f6f1ed95c21fb6ffeb497b6db8b444e2877a4c79ea6c04d5bb49190a250565b336000908152600160205260409020546060908190819081906001600160a01b03161515806109c25750336000908152600260205260409020546001600160a01b031615155b6109de5760405162461bcd60e51b815260040161028e906116bd565b6001600160a01b0385811660009081526020819052604090205416610a155760405162461bcd60e51b815260040161028e9061146d565b6040516001600160a01b0386169033907fe95922dc213eb970fa470b43e1d4efb4ed66e07929c33baa3d562dfd4ddbb81c90600090a36001600160a01b03808616600090815260208181526040808320815160a0810190925280549094168152600184018054939491939192840191610a8d906117d4565b80601f0160208091040260200160405190810160405280929190818152602001828054610ab9906117d4565b8015610b065780601f10610adb57610100808354040283529160200191610b06565b820191906000526020600020905b815481529060010190602001808311610ae957829003601f168201915b50505050508152602001600282018054610b1f906117d4565b80601f0160208091040260200160405190810160405280929190818152602001828054610b4b906117d4565b8015610b985780601f10610b6d57610100808354040283529160200191610b98565b820191906000526020600020905b815481529060010190602001808311610b7b57829003601f168201915b50505050508152602001600382018054610bb1906117d4565b80601f0160208091040260200160405190810160405280929190818152602001828054610bdd906117d4565b8015610c2a5780601f10610bff57610100808354040283529160200191610c2a565b820191906000526020600020905b815481529060010190602001808311610c0d57829003601f168201915b50505050508152602001600482018054610c43906117d4565b80601f0160208091040260200160405190810160405280929190818152602001828054610c6f906117d4565b8015610cbc5780601f10610c9157610100808354040283529160200191610cbc565b820191906000526020600020905b815481529060010190602001808311610c9f57829003601f168201915b505050505081525050905080602001518160400151826060015183608001519450945094509450509193509193565b6004602052600090815260409020546001600160a01b031681565b6003602052600090815260409020546001600160a01b031681565b6001600160a01b038181166000908152600160205260408120549091606091839116610d5f5760405162461bcd60e51b815260040161028e906113ff565b6001600160a01b03808516600090815260016020818152604080842081518083019092528054909516815291840180549394929391840191610da0906117d4565b80601f0160208091040260200160405190810160405280929190818152602001828054610dcc906117d4565b8015610e195780601f10610dee57610100808354040283529160200191610e19565b820191906000526020600020905b815481529060010190602001808311610dfc57829003601f168201915b50505091909252505081516020928301516001600160a01b039889166000908152600490945260409093205490989297169550909350505050565b336000908152600260205260409020546001600160a01b0316610e895760405162461bcd60e51b815260040161028e906115a6565b6001600160a01b038281166000908152600160205260409020541615610ec15760405162461bcd60e51b815260040161028e90611436565b6040805180820182526001600160a01b03848116808352602080840186815260009283526001808352959092208451815473ffffffffffffffffffffffffffffffffffffffff191694169390931783559051805193949293610f2a938501929190910190610f92565b5050506001600160a01b038216600081815260046020526040808220805473ffffffffffffffffffffffffffffffffffffffff19163390811790915590519092917fc916a285590c18b033d68ec8dbf57ff5355958c88ec49a3912c3a257d1a3709e91a35050565b828054610f9e906117d4565b90600052602060002090601f016020900481019282610fc05760008555611006565b82601f10610fd957805160ff1916838001178555611006565b82800160010185558215611006579182015b82811115611006578251825591602001919060010190610feb565b50611012929150611055565b5090565b508054611022906117d4565b6000825580601f106110345750611052565b601f0160209004906000526020600020908101906110529190611055565b50565b5b808211156110125760008155600101611056565b80356001600160a01b038116811461108157600080fd5b919050565b600082601f830112611096578081fd5b813567ffffffffffffffff808211156110b1576110b1611828565b6040516020601f19601f85011682010181811083821117156110d5576110d5611828565b6040528281528483016020018610156110ec578384fd5b82602086016020830137918201602001929092529392505050565b600060208284031215611118578081fd5b6111218261106a565b9392505050565b6000806040838503121561113a578081fd5b6111438361106a565b9150602083013567ffffffffffffffff81111561115e578182fd5b61116a85828601611086565b9150509250929050565b600080600080600060a0868803121561118b578081fd5b6111948661106a565b9450602086013567ffffffffffffffff808211156111b0578283fd5b6111bc89838a01611086565b955060408801359150808211156111d1578283fd5b6111dd89838a01611086565b945060608801359150808211156111f2578283fd5b6111fe89838a01611086565b93506080880135915080821115611213578283fd5b5061122088828901611086565b9150509295509295909350565b60008060008060808587031215611242578384fd5b843567ffffffffffffffff80821115611259578586fd5b61126588838901611086565b9550602087013591508082111561127a578485fd5b61128688838901611086565b9450604087013591508082111561129b578384fd5b6112a788838901611086565b935060608701359150808211156112bc578283fd5b506112c987828801611086565b91505092959194509250565b60008151808452815b818110156112fa576020818501810151868301820152016112de565b8181111561130b5782602083870101525b50601f01601f19169290920160200192915050565b6001600160a01b0391909116815260200190565b60006001600160a01b03841682526040602083015261135660408301846112d5565b949350505050565b60006001600160a01b0380861683526060602084015261138160608401866112d5565b9150808416604084015250949350505050565b60006020825261112160208301846112d5565b6000608082526113ba60808301876112d5565b82810360208401526113cc81876112d5565b905082810360408401526113e081866112d5565b905082810360608401526113f481856112d5565b979650505050505050565b60208082526019908201527f536f636f727269737461206e616f20656e636f6e747261646f00000000000000604082015260600190565b60208082526018908201527f536f636f727269737461206a61206361646173747261646f0000000000000000604082015260600190565b60208082526016908201527f436c69656e7465206e616f20656e636f6e747261646f00000000000000000000604082015260600190565b60208082526011908201527f456e64657265636f20696e76616c69646f000000000000000000000000000000604082015260600190565b6020808252601a908201527f496e73746974756963616f206e616f20656e636f6e7472616461000000000000604082015260600190565b6020808252602e908201527f536f6d656e746520696e737469747569636f657320706f64656d206578636c7560408201527f697220736f636f72726973746173000000000000000000000000000000000000606082015260800190565b60208082526015908201527f436c69656e7465206a61206361646173747261646f0000000000000000000000604082015260600190565b60208082526030908201527f536f6d656e746520696e737469747569636f657320706f64656d20636164617360408201527f7472617220736f636f7272697374617300000000000000000000000000000000606082015260800190565b60208082526039908201527f536f6d656e7465206120696e73746974756963616f206173736f63696164612060408201527f706f6465206578636c756972206f20736f636f72726973746100000000000000606082015260800190565b6020808252602d908201527f536f6d656e746520696e737469747569636f657320706f64656d20636164617360408201527f7472617220636c69656e74657300000000000000000000000000000000000000606082015260800190565b6020808252604a908201527f536f6d656e746520736f636f72726973746173206520696e737469747569636f60408201527f657320706f64656d206163657373617220617320696e666f726d61636f65732060608201527f646f20636c69656e746500000000000000000000000000000000000000000000608082015260a00190565b60208082526019908201527f496e73746974756963616f206a61206361646173747261646100000000000000604082015260600190565b60208082526036908201527f536f6d656e7465206120696e73746974756963616f206173736f63696164612060408201527f706f6465206578636c756972206f20636c69656e746500000000000000000000606082015260800190565b6002810460018216806117e857607f821691505b60208210811415611822577f4e487b7100000000000000000000000000000000000000000000000000000000600052602260045260246000fd5b50919050565b7f4e487b7100000000000000000000000000000000000000000000000000000000600052604160045260246000fdfea2646970667358221220940c1568deab1b4fc14b1abaadcf0126777ce87f33a568dec5d9cfb70f7e2f9264736f6c63430008000033",
  "immutableReferences": {},
  "source": "// SPDX-License-Identifier: MIT\npragma solidity ^0.8.0;\n\ncontract Healthchain {\n    struct Cliente {\n        address payable cliente;\n        string comorbidades;\n        string alergias;\n        string tipoSanguineo;\n        string restricao;\n    }\n\n    struct Socorrista {\n        address payable socorrista;\n        string crm;\n    }\n\n    struct InstituicaoSaude {\n        address payable instituicaoSaude;\n        string nomeInstituicao;\n    }\n\n    mapping(address => Cliente) private clientes;\n    mapping(address => Socorrista) private socorristas;\n    mapping(address => InstituicaoSaude) private instituicoes;\n\n    mapping(address => address) public clienteParaInstituicao;\n    mapping(address => address) public socorristaParaInstituicao;\n\n    // Eventos\n    event ClienteCadastrado(address indexed cliente, address indexed instituicao);\n    event ClienteAtualizado(address indexed cliente);\n    event ClienteExcluido(address indexed cliente);\n    event SocorristaCadastrado(address indexed socorrista, address indexed instituicao);\n    event SocorristaExcluido(address indexed socorrista);\n    event InstituicaoCadastrada(address indexed instituicao, string nome);\n    event DepositoRealizado(address indexed conta, uint256 valor);\n    event ClienteConsultado(address indexed socorrista, address indexed cliente);\n\n    // Funo para cadastrar uma nova instituio de sade\n    function cadastrarInstituicao(address _instituicaoAddress, string memory _nomeInstituicao) public {\n        require(_instituicaoAddress != address(0), \"Endereco invalido\");\n        require(instituicoes[_instituicaoAddress].instituicaoSaude == address(0), \"Instituicao ja cadastrada\");\n        \n        instituicoes[_instituicaoAddress] = InstituicaoSaude(\n            payable(_instituicaoAddress),\n            _nomeInstituicao\n        );\n        \n        emit InstituicaoCadastrada(_instituicaoAddress, _nomeInstituicao);\n    }\n\n    // Funo para obter informaes de uma instituio de sade\n    function getInstituicao(address _instituicao) public view returns (\n        address,\n        string memory\n    ) {\n        require(instituicoes[_instituicao].instituicaoSaude != address(0), \"Instituicao nao encontrada\");\n        InstituicaoSaude memory instituicao = instituicoes[_instituicao];\n        return (\n            instituicao.instituicaoSaude,\n            instituicao.nomeInstituicao\n        );\n    }\n\n    // Funo para cadastrar um novo cliente\n    function cadastrarCliente(\n        address _cliente,\n        string memory _comorbidades,\n        string memory _alergias,\n        string memory _tipoSanguineo,\n        string memory _restricao\n    ) public payable {\n        // require(msg.value == 0.0001 ether, \"O cadastro requer 0.0001 ether\");\n        require(instituicoes[msg.sender].instituicaoSaude != address(0), \"Somente instituicoes podem cadastrar clientes\");\n        require(clientes[_cliente].cliente == address(0), \"Cliente ja cadastrado\");\n\n        clientes[_cliente] = Cliente(\n            payable(_cliente),\n            _comorbidades,\n            _alergias,\n            _tipoSanguineo,\n            _restricao\n        );\n\n        clienteParaInstituicao[_cliente] = msg.sender;\n        emit ClienteCadastrado(_cliente, msg.sender);\n    }\n\n    // Funo para editar as informaes de um cliente\n    function editarCliente(\n        string memory _comorbidades,\n        string memory _alergias,\n        string memory _tipoSanguineo,\n        string memory _restricao\n    ) public {\n        require(clientes[msg.sender].cliente != address(0), \"Cliente nao encontrado\");\n        Cliente storage cliente = clientes[msg.sender];\n        cliente.comorbidades = _comorbidades;\n        cliente.alergias = _alergias;\n        cliente.tipoSanguineo = _tipoSanguineo;\n        cliente.restricao = _restricao;\n        emit ClienteAtualizado(msg.sender);\n    }\n\n    // Funo para excluir um cliente\n    function excluirCliente(address _cliente) public {\n        require(clientes[_cliente].cliente != address(0), \"Cliente nao encontrado\");\n        require(clienteParaInstituicao[_cliente] == msg.sender, \"Somente a instituicao associada pode excluir o cliente\");\n        delete clientes[_cliente];\n        delete clienteParaInstituicao[_cliente];\n        emit ClienteExcluido(_cliente);\n    }\n\n    // Funo para obter informaes de um cliente - Apenas socorristas podem chamar esta funo\nfunction getCliente(address _cliente) public returns (\n    string memory,\n    string memory,\n    string memory,\n    string memory\n) {\n    // Requisitos de acesso e verificaes\n    require(\n        socorristas[msg.sender].socorrista != address(0) || \n        instituicoes[msg.sender].instituicaoSaude != address(0), \n        \"Somente socorristas e instituicoes podem acessar as informacoes do cliente\"\n    );\n    require(clientes[_cliente].cliente != address(0), \"Cliente nao encontrado\");\n\n    // Emitindo evento de consulta ao cliente\n    emit ClienteConsultado(msg.sender, _cliente);\n\n    // Retornando informaes do cliente\n    Cliente memory cliente = clientes[_cliente];\n    return (\n        cliente.comorbidades,\n        cliente.alergias,\n        cliente.tipoSanguineo,\n        cliente.restricao\n    );\n}\n\n\n\n    // Funo para cadastrar um novo socorrista\n    function cadastrarSocorrista(\n        address _socorrista,\n        string memory _crm\n    ) public {\n        require(instituicoes[msg.sender].instituicaoSaude != address(0), \"Somente instituicoes podem cadastrar socorristas\");\n        require(socorristas[_socorrista].socorrista == address(0), \"Socorrista ja cadastrado\");\n\n        socorristas[_socorrista] = Socorrista(\n            payable(_socorrista),\n            _crm\n        );\n        socorristaParaInstituicao[_socorrista] = msg.sender;\n        emit SocorristaCadastrado(_socorrista, msg.sender);\n    }\n\n    // Funo para excluir um socorrista\n    function excluirSocorrista(address _socorrista) public {\n        require(instituicoes[msg.sender].instituicaoSaude != address(0), \"Somente instituicoes podem excluir socorristas\");\n        require(socorristas[_socorrista].socorrista != address(0), \"Socorrista nao encontrado\");\n        require(socorristaParaInstituicao[_socorrista] == msg.sender, \"Somente a instituicao associada pode excluir o socorrista\");\n        delete socorristas[_socorrista];\n        delete socorristaParaInstituicao[_socorrista];\n        emit SocorristaExcluido(_socorrista);\n    }\n\n    // Funo para obter os dados de um socorrista\n    function getSocorrista(address _socorrista) public view returns (\n        address,\n        string memory,\n        address\n    ) {\n        require(socorristas[_socorrista].socorrista != address(0), \"Socorrista nao encontrado\");\n\n        Socorrista memory socorrista = socorristas[_socorrista];\n        return (\n            socorrista.socorrista,\n            socorrista.crm,\n            socorristaParaInstituicao[_socorrista]\n        );\n    }\n\n}\n",
  "sourcePath": "/home/daniel/Documentos/blockchain/contracts/Healthchain.sol",
  "compiler": {
    "name": "solc",
    "version": "0.8.0+commit.c7dfd78e.Emscripten.clang"
  },
  "schemaVersion": "3.4.16",
  "updatedAt": "2024-09-12T04:07:23.020Z",
  "networkType": "ethereum",
  "devdoc": {
    "kind": "dev",
    "methods": {},
    "version": 1
  },
  "userdoc": {
    "kind": "user",
    "methods": {},
    "version": 1
  }
}